{
  "contractName": "Refund",
  "abi": [
    {
      "inputs": [],
      "payable": false,
      "stateMutability": "nonpayable",
      "type": "constructor"
    },
    {
      "anonymous": false,
      "inputs": [
        {
          "indexed": false,
          "internalType": "string",
          "name": "user",
          "type": "string"
        },
        {
          "indexed": false,
          "internalType": "uint256",
          "name": "id",
          "type": "uint256"
        }
      ],
      "name": "UserCreated",
      "type": "event"
    },
    {
      "constant": true,
      "inputs": [
        {
          "internalType": "uint256",
          "name": "",
          "type": "uint256"
        }
      ],
      "name": "user",
      "outputs": [
        {
          "internalType": "string",
          "name": "fullName",
          "type": "string"
        },
        {
          "internalType": "uint256",
          "name": "longtuide",
          "type": "uint256"
        },
        {
          "internalType": "uint256",
          "name": "latitude",
          "type": "uint256"
        }
      ],
      "payable": false,
      "stateMutability": "view",
      "type": "function"
    },
    {
      "constant": true,
      "inputs": [],
      "name": "userCount",
      "outputs": [
        {
          "internalType": "uint256",
          "name": "",
          "type": "uint256"
        }
      ],
      "payable": false,
      "stateMutability": "view",
      "type": "function"
    },
    {
      "constant": false,
      "inputs": [
        {
          "internalType": "string",
          "name": "_fullName",
          "type": "string"
        },
        {
          "internalType": "uint256",
          "name": "_longtuide",
          "type": "uint256"
        },
        {
          "internalType": "uint256",
          "name": "_latitude",
          "type": "uint256"
        }
      ],
      "name": "addUser",
      "outputs": [],
      "payable": false,
      "stateMutability": "nonpayable",
      "type": "function"
    },
    {
      "constant": false,
      "inputs": [],
      "name": "compliance",
      "outputs": [],
      "payable": false,
      "stateMutability": "nonpayable",
      "type": "function"
    }
  ],
  "bytecode": "0x608060405234801561001057600080fd5b5060016000819055506104c0806100286000396000f3fe608060405234801561001057600080fd5b506004361061004c5760003560e01c806307973ccf14610051578063553275be1461006f5780636290865d14610124578063be607b741461012e575b600080fd5b6100596101fd565b6040518082815260200191505060405180910390f35b61009b6004803603602081101561008557600080fd5b8101908080359060200190929190505050610203565b6040518080602001848152602001838152602001828103825285818151815260200191508051906020019080838360005b838110156100e75780820151818401526020810190506100cc565b50505050905090810190601f1680156101145780820380516001836020036101000a031916815260200191505b5094505050505060405180910390f35b61012c6102c5565b005b6101fb6004803603606081101561014457600080fd5b810190808035906020019064010000000081111561016157600080fd5b82018360208201111561017357600080fd5b8035906020019184600183028401116401000000008311171561019557600080fd5b91908080601f016020809104026020016040519081016040528093929190818152602001838380828437600081840152601f19601f82011690508083019250505050505050919291929080359060200190929190803590602001909291905050506102c7565b005b60005481565b6002602052806000526040600020600091509050806000018054600181600116156101000203166002900480601f0160208091040260200160405190810160405280929190818152602001828054600181600116156101000203166002900480156102af5780601f10610284576101008083540402835291602001916102af565b820191906000526020600020905b81548152906001019060200180831161029257829003601f168201915b5050505050908060010154908060020154905083565b565b6040518060600160405280848152602001838152602001828152506002600080600081548092919060010191905055815260200190815260200160002060008201518160000190805190602001906103209291906103e6565b5060208201518160010155604082015181600201559050507f7fa2200db6d5ae99b26bc877cbae73fdb888db23bd9bd4b4d1ea273013186bb7836001600054016040518080602001838152602001828103825284818151815260200191508051906020019080838360005b838110156103a657808201518184015260208101905061038b565b50505050905090810190601f1680156103d35780820380516001836020036101000a031916815260200191505b50935050505060405180910390a1505050565b828054600181600116156101000203166002900490600052602060002090601f016020900481019282601f1061042757805160ff1916838001178555610455565b82800160010185558215610455579182015b82811115610454578251825591602001919060010190610439565b5b5090506104629190610466565b5090565b61048891905b8082111561048457600081600090555060010161046c565b5090565b9056fea265627a7a723158207abbfbaf1d933ce44868a9de01f26e3328f6717dfced458779ef6b036e1aef8c64736f6c63430005100032",
  "source": "// SPDX-License-Identifier: MIT\npragma solidity >=0.4.22 <0.9.0;\n\ncontract Refund {\n    uint256 public userCount;\n\n    uint256 employer;\n\n    struct Employee {\n        string fullName;\n        uint256 longtuide;\n        uint256 latitude;\n    }\n\n    mapping(uint256 => Employee) public user;\n    event UserCreated(string user, uint256 id);\n\n    constructor() public {\n        userCount = 1;\n    }\n\n    function addUser(\n        string memory _fullName,\n        uint256 _longtuide,\n        uint256 _latitude\n    ) public {\n        user[userCount++] = Employee(_fullName, _longtuide, _latitude);\n        emit UserCreated(_fullName, userCount + 1);\n    }\n\n    // function fund() public payable {\n\n    //     s_addressToAmountFunded[msg.sender] += msg.value;\n    //     s_funders.push(msg.sender);\n    // }\n\n    function compliance() public {}\n\n    function getAmountEmployer(uint256 amount) private {}\n}\n",
  "sourcePath": "/home/ermi/Desktop/week10/Refund-by-location-smart-contract/frontend/mobileapp/contracts/Refund.sol",
  "compiler": {
    "name": "solc",
    "version": "0.5.16+commit.9c3226ce.Emscripten.clang"
  },
  "schemaVersion": "3.4.8",
  "updatedAt": "2022-07-14T19:23:51.481Z",
  "networkType": "ethereum",
  "devdoc": {
    "methods": {}
  },
  "userdoc": {
    "methods": {}
  }
}