{
  "address": "0x5FbDB2315678afecb367f032d93F642f64180aa3",
  "abi": [
    {
      "inputs": [],
      "stateMutability": "nonpayable",
      "type": "constructor"
    },
    {
      "anonymous": false,
      "inputs": [
        {
          "indexed": false,
          "internalType": "string",
          "name": "user",
          "type": "string"
        },
        {
          "indexed": false,
          "internalType": "uint256",
          "name": "id",
          "type": "uint256"
        }
      ],
      "name": "UserCreated",
      "type": "event"
    },
    {
      "inputs": [
        {
          "internalType": "uint256",
          "name": "lat2",
          "type": "uint256"
        },
        {
          "internalType": "uint256",
          "name": "lon2",
          "type": "uint256"
        }
      ],
      "name": "calculateDistance",
      "outputs": [
        {
          "internalType": "uint256",
          "name": "dist",
          "type": "uint256"
        }
      ],
      "stateMutability": "view",
      "type": "function"
    },
    {
      "inputs": [
        {
          "internalType": "address",
          "name": "empAddress",
          "type": "address"
        },
        {
          "internalType": "string",
          "name": "name",
          "type": "string"
        },
        {
          "internalType": "uint256",
          "name": "lat",
          "type": "uint256"
        },
        {
          "internalType": "uint256",
          "name": "lon",
          "type": "uint256"
        },
        {
          "internalType": "uint256",
          "name": "range",
          "type": "uint256"
        }
      ],
      "name": "createEmployee",
      "outputs": [],
      "stateMutability": "nonpayable",
      "type": "function"
    },
    {
      "inputs": [
        {
          "internalType": "address",
          "name": "",
          "type": "address"
        }
      ],
      "name": "employeeCondition",
      "outputs": [
        {
          "internalType": "bool",
          "name": "",
          "type": "bool"
        }
      ],
      "stateMutability": "view",
      "type": "function"
    },
    {
      "inputs": [
        {
          "internalType": "uint256",
          "name": "",
          "type": "uint256"
        }
      ],
      "name": "employees",
      "outputs": [
        {
          "internalType": "address",
          "name": "",
          "type": "address"
        }
      ],
      "stateMutability": "view",
      "type": "function"
    },
    {
      "inputs": [
        {
          "internalType": "uint256",
          "name": "lat",
          "type": "uint256"
        },
        {
          "internalType": "uint256",
          "name": "lon",
          "type": "uint256"
        },
        {
          "internalType": "uint256",
          "name": "time",
          "type": "uint256"
        }
      ],
      "name": "getCoordinate",
      "outputs": [],
      "stateMutability": "nonpayable",
      "type": "function"
    },
    {
      "inputs": [
        {
          "internalType": "address",
          "name": "empAddress",
          "type": "address"
        }
      ],
      "name": "getEmployeeDetail",
      "outputs": [
        {
          "internalType": "string",
          "name": "",
          "type": "string"
        },
        {
          "internalType": "uint256",
          "name": "",
          "type": "uint256"
        },
        {
          "internalType": "uint256",
          "name": "",
          "type": "uint256"
        },
        {
          "internalType": "uint256",
          "name": "",
          "type": "uint256"
        }
      ],
      "stateMutability": "view",
      "type": "function"
    },
    {
      "inputs": [],
      "name": "getEmployees",
      "outputs": [
        {
          "internalType": "address[]",
          "name": "",
          "type": "address[]"
        }
      ],
      "stateMutability": "view",
      "type": "function"
    },
    {
      "inputs": [],
      "name": "getOwner",
      "outputs": [
        {
          "internalType": "address",
          "name": "",
          "type": "address"
        }
      ],
      "stateMutability": "view",
      "type": "function"
    },
    {
      "inputs": [
        {
          "internalType": "uint256",
          "name": "x",
          "type": "uint256"
        }
      ],
      "name": "sqrt",
      "outputs": [
        {
          "internalType": "uint256",
          "name": "y",
          "type": "uint256"
        }
      ],
      "stateMutability": "pure",
      "type": "function"
    },
    {
      "inputs": [
        {
          "internalType": "address",
          "name": "",
          "type": "address"
        }
      ],
      "name": "user",
      "outputs": [
        {
          "internalType": "string",
          "name": "fullName",
          "type": "string"
        },
        {
          "internalType": "string",
          "name": "email",
          "type": "string"
        },
        {
          "internalType": "uint256",
          "name": "longtuide",
          "type": "uint256"
        },
        {
          "internalType": "uint256",
          "name": "latitude",
          "type": "uint256"
        },
        {
          "internalType": "uint256",
          "name": "permittedRange",
          "type": "uint256"
        }
      ],
      "stateMutability": "view",
      "type": "function"
    },
    {
      "inputs": [],
      "name": "userCount",
      "outputs": [
        {
          "internalType": "uint256",
          "name": "",
          "type": "uint256"
        }
      ],
      "stateMutability": "view",
      "type": "function"
    }
  ],
  "transactionHash": "0x351465eb734e7a05656036755c1aab850174fd2139a4bc47a5337d54972f39c5",
  "args": [],
  "numDeployments": 1,
  "solcInputHash": "6e9a1abbd9fca9a85f0bcc957b65be6e",
  "bytecode": "0x608060405234801561001057600080fd5b5033600160006101000a81548173ffffffffffffffffffffffffffffffffffffffff021916908373ffffffffffffffffffffffffffffffffffffffff16021790555061144a806100616000396000f3fe608060405234801561001057600080fd5b50600436106100a95760003560e01c80635a328d8b116100715780635a328d8b14610166578063677342ce146101995780636b37bbde146101c957806381e7e20e146101e5578063893d20e814610219578063b8aa839a14610237576100a9565b806307973ccf146100ae57806325ce5e13146100cc578063282a0fa7146100fc5780634739326b146101185780634abefa3614610148575b600080fd5b6100b6610267565b6040516100c39190610b17565b60405180910390f35b6100e660048036038101906100e19190610b72565b61026d565b6040516100f39190610b17565b60405180910390f35b61011660048036038101906101119190610d56565b6102d3565b005b610132600480360381019061012d9190610ded565b6104c3565b60405161013f9190610e29565b60405180910390f35b610150610502565b60405161015d9190610f02565b60405180910390f35b610180600480360381019061017b9190610f24565b610590565b6040516101909493929190610fd9565b60405180910390f35b6101b360048036038101906101ae9190610ded565b61073d565b6040516101c09190610b17565b60405180910390f35b6101e360048036038101906101de9190611025565b61079a565b005b6101ff60048036038101906101fa9190610f24565b6108cb565b604051610210959493929190611078565b60405180910390f35b610221610a11565b60405161022e9190610e29565b60405180910390f35b610251600480360381019061024c9190610f24565b610a3b565b60405161025e91906110f4565b60405180910390f35b60005481565b600080600061027b33610590565b50925092505060006102c560028387610294919061113e565b61029e91906112b2565b600285896102ac919061113e565b6102b691906112b2565b6102c091906112fd565b61073d565b905080935050505092915050565b600160009054906101000a900473ffffffffffffffffffffffffffffffffffffffff1673ffffffffffffffffffffffffffffffffffffffff163373ffffffffffffffffffffffffffffffffffffffff161461032d57600080fd5b83600360008773ffffffffffffffffffffffffffffffffffffffff1673ffffffffffffffffffffffffffffffffffffffff1681526020019081526020016000206000019080519060200190610383929190610a5b565b5082600360008773ffffffffffffffffffffffffffffffffffffffff1673ffffffffffffffffffffffffffffffffffffffff1681526020019081526020016000206003018190555081600360008773ffffffffffffffffffffffffffffffffffffffff1673ffffffffffffffffffffffffffffffffffffffff1681526020019081526020016000206002018190555080600360008773ffffffffffffffffffffffffffffffffffffffff1673ffffffffffffffffffffffffffffffffffffffff168152602001908152602001600020600401819055506005859080600181540180825580915050600190039060005260206000200160009091909190916101000a81548173ffffffffffffffffffffffffffffffffffffffff021916908373ffffffffffffffffffffffffffffffffffffffff1602179055505050505050565b600581815481106104d357600080fd5b906000526020600020016000915054906101000a900473ffffffffffffffffffffffffffffffffffffffff1681565b6060600580548060200260200160405190810160405280929190818152602001828054801561058657602002820191906000526020600020905b8160009054906101000a900473ffffffffffffffffffffffffffffffffffffffff1673ffffffffffffffffffffffffffffffffffffffff168152602001906001019080831161053c575b5050505050905090565b60606000806000600360008673ffffffffffffffffffffffffffffffffffffffff1673ffffffffffffffffffffffffffffffffffffffff168152602001908152602001600020600001600360008773ffffffffffffffffffffffffffffffffffffffff1673ffffffffffffffffffffffffffffffffffffffff16815260200190815260200160002060030154600360008873ffffffffffffffffffffffffffffffffffffffff1673ffffffffffffffffffffffffffffffffffffffff16815260200190815260200160002060020154600360008973ffffffffffffffffffffffffffffffffffffffff1673ffffffffffffffffffffffffffffffffffffffff168152602001908152602001600020600401548380546106ae90611382565b80601f01602080910402602001604051908101604052809291908181526020018280546106da90611382565b80156107275780601f106106fc57610100808354040283529160200191610727565b820191906000526020600020905b81548152906001019060200180831161070a57829003601f168201915b5050505050935093509350935093509193509193565b600080600260018461074f91906112fd565b61075991906113e3565b90508291505b8181101561079457809150600281828561077991906113e3565b61078391906112fd565b61078d91906113e3565b905061075f565b50919050565b600081101580156107ae5750620151808111155b6107b757600080fd5b60006107c3848461026d565b9050600360003373ffffffffffffffffffffffffffffffffffffffff1673ffffffffffffffffffffffffffffffffffffffff1681526020019081526020016000206004015481111561086c576000600460003373ffffffffffffffffffffffffffffffffffffffff1673ffffffffffffffffffffffffffffffffffffffff16815260200190815260200160002060006101000a81548160ff0219169083151502179055506108c5565b6001600460003373ffffffffffffffffffffffffffffffffffffffff1673ffffffffffffffffffffffffffffffffffffffff16815260200190815260200160002060006101000a81548160ff0219169083151502179055505b50505050565b60036020528060005260406000206000915090508060000180546108ee90611382565b80601f016020809104026020016040519081016040528092919081815260200182805461091a90611382565b80156109675780601f1061093c57610100808354040283529160200191610967565b820191906000526020600020905b81548152906001019060200180831161094a57829003601f168201915b50505050509080600101805461097c90611382565b80601f01602080910402602001604051908101604052809291908181526020018280546109a890611382565b80156109f55780601f106109ca576101008083540402835291602001916109f5565b820191906000526020600020905b8154815290600101906020018083116109d857829003601f168201915b5050505050908060020154908060030154908060040154905085565b6000600160009054906101000a900473ffffffffffffffffffffffffffffffffffffffff16905090565b60046020528060005260406000206000915054906101000a900460ff1681565b828054610a6790611382565b90600052602060002090601f016020900481019282610a895760008555610ad0565b82601f10610aa257805160ff1916838001178555610ad0565b82800160010185558215610ad0579182015b82811115610acf578251825591602001919060010190610ab4565b5b509050610add9190610ae1565b5090565b5b80821115610afa576000816000905550600101610ae2565b5090565b6000819050919050565b610b1181610afe565b82525050565b6000602082019050610b2c6000830184610b08565b92915050565b6000604051905090565b600080fd5b600080fd5b610b4f81610afe565b8114610b5a57600080fd5b50565b600081359050610b6c81610b46565b92915050565b60008060408385031215610b8957610b88610b3c565b5b6000610b9785828601610b5d565b9250506020610ba885828601610b5d565b9150509250929050565b600073ffffffffffffffffffffffffffffffffffffffff82169050919050565b6000610bdd82610bb2565b9050919050565b610bed81610bd2565b8114610bf857600080fd5b50565b600081359050610c0a81610be4565b92915050565b600080fd5b600080fd5b6000601f19601f8301169050919050565b7f4e487b7100000000000000000000000000000000000000000000000000000000600052604160045260246000fd5b610c6382610c1a565b810181811067ffffffffffffffff82111715610c8257610c81610c2b565b5b80604052505050565b6000610c95610b32565b9050610ca18282610c5a565b919050565b600067ffffffffffffffff821115610cc157610cc0610c2b565b5b610cca82610c1a565b9050602081019050919050565b82818337600083830152505050565b6000610cf9610cf484610ca6565b610c8b565b905082815260208101848484011115610d1557610d14610c15565b5b610d20848285610cd7565b509392505050565b600082601f830112610d3d57610d3c610c10565b5b8135610d4d848260208601610ce6565b91505092915050565b600080600080600060a08688031215610d7257610d71610b3c565b5b6000610d8088828901610bfb565b955050602086013567ffffffffffffffff811115610da157610da0610b41565b5b610dad88828901610d28565b9450506040610dbe88828901610b5d565b9350506060610dcf88828901610b5d565b9250506080610de088828901610b5d565b9150509295509295909350565b600060208284031215610e0357610e02610b3c565b5b6000610e1184828501610b5d565b91505092915050565b610e2381610bd2565b82525050565b6000602082019050610e3e6000830184610e1a565b92915050565b600081519050919050565b600082825260208201905092915050565b6000819050602082019050919050565b610e7981610bd2565b82525050565b6000610e8b8383610e70565b60208301905092915050565b6000602082019050919050565b6000610eaf82610e44565b610eb98185610e4f565b9350610ec483610e60565b8060005b83811015610ef5578151610edc8882610e7f565b9750610ee783610e97565b925050600181019050610ec8565b5085935050505092915050565b60006020820190508181036000830152610f1c8184610ea4565b905092915050565b600060208284031215610f3a57610f39610b3c565b5b6000610f4884828501610bfb565b91505092915050565b600081519050919050565b600082825260208201905092915050565b60005b83811015610f8b578082015181840152602081019050610f70565b83811115610f9a576000848401525b50505050565b6000610fab82610f51565b610fb58185610f5c565b9350610fc5818560208601610f6d565b610fce81610c1a565b840191505092915050565b60006080820190508181036000830152610ff38187610fa0565b90506110026020830186610b08565b61100f6040830185610b08565b61101c6060830184610b08565b95945050505050565b60008060006060848603121561103e5761103d610b3c565b5b600061104c86828701610b5d565b935050602061105d86828701610b5d565b925050604061106e86828701610b5d565b9150509250925092565b600060a08201905081810360008301526110928188610fa0565b905081810360208301526110a68187610fa0565b90506110b56040830186610b08565b6110c26060830185610b08565b6110cf6080830184610b08565b9695505050505050565b60008115159050919050565b6110ee816110d9565b82525050565b600060208201905061110960008301846110e5565b92915050565b7f4e487b7100000000000000000000000000000000000000000000000000000000600052601160045260246000fd5b600061114982610afe565b915061115483610afe565b9250828210156111675761116661110f565b5b828203905092915050565b60008160011c9050919050565b6000808291508390505b60018511156111c9578086048111156111a5576111a461110f565b5b60018516156111b45780820291505b80810290506111c285611172565b9450611189565b94509492505050565b6000826111e2576001905061129e565b816111f0576000905061129e565b816001811461120657600281146112105761123f565b600191505061129e565b60ff8411156112225761122161110f565b5b8360020a9150848211156112395761123861110f565b5b5061129e565b5060208310610133831016604e8410600b84101617156112745782820a90508381111561126f5761126e61110f565b5b61129e565b611281848484600161117f565b925090508184048111156112985761129761110f565b5b81810290505b9392505050565b600060ff82169050919050565b60006112bd82610afe565b91506112c8836112a5565b92506112f57fffffffffffffffffffffffffffffffffffffffffffffffffffffffffffffffff84846111d2565b905092915050565b600061130882610afe565b915061131383610afe565b9250827fffffffffffffffffffffffffffffffffffffffffffffffffffffffffffffffff038211156113485761134761110f565b5b828201905092915050565b7f4e487b7100000000000000000000000000000000000000000000000000000000600052602260045260246000fd5b6000600282049050600182168061139a57607f821691505b602082108114156113ae576113ad611353565b5b50919050565b7f4e487b7100000000000000000000000000000000000000000000000000000000600052601260045260246000fd5b60006113ee82610afe565b91506113f983610afe565b925082611409576114086113b4565b5b82820490509291505056fea2646970667358221220ad844ae76871bb62371787f10b31b4f175112d118a18295f75b1c8a88753f20b64736f6c63430008080033",
  "devdoc": {
    "kind": "dev",
    "methods": {},
    "version": 1
  },
  "userdoc": {
    "kind": "user",
    "methods": {},
    "version": 1
  },
  "storageLayout": {
    "storage": [
      {
        "astId": 3,
        "contract": "contracts/Refund.sol:Refund",
        "label": "userCount",
        "offset": 0,
        "slot": "0",
        "type": "t_uint256"
      },
      {
        "astId": 5,
        "contract": "contracts/Refund.sol:Refund",
        "label": "owner",
        "offset": 0,
        "slot": "1",
        "type": "t_address"
      },
      {
        "astId": 7,
        "contract": "contracts/Refund.sol:Refund",
        "label": "employer",
        "offset": 0,
        "slot": "2",
        "type": "t_uint256"
      },
      {
        "astId": 23,
        "contract": "contracts/Refund.sol:Refund",
        "label": "user",
        "offset": 0,
        "slot": "3",
        "type": "t_mapping(t_address,t_struct(Employee)18_storage)"
      },
      {
        "astId": 27,
        "contract": "contracts/Refund.sol:Refund",
        "label": "employeeCondition",
        "offset": 0,
        "slot": "4",
        "type": "t_mapping(t_address,t_bool)"
      },
      {
        "astId": 36,
        "contract": "contracts/Refund.sol:Refund",
        "label": "employees",
        "offset": 0,
        "slot": "5",
        "type": "t_array(t_address)dyn_storage"
      }
    ],
    "types": {
      "t_address": {
        "encoding": "inplace",
        "label": "address",
        "numberOfBytes": "20"
      },
      "t_array(t_address)dyn_storage": {
        "base": "t_address",
        "encoding": "dynamic_array",
        "label": "address[]",
        "numberOfBytes": "32"
      },
      "t_bool": {
        "encoding": "inplace",
        "label": "bool",
        "numberOfBytes": "1"
      },
      "t_mapping(t_address,t_bool)": {
        "encoding": "mapping",
        "key": "t_address",
        "label": "mapping(address => bool)",
        "numberOfBytes": "32",
        "value": "t_bool"
      },
      "t_mapping(t_address,t_struct(Employee)18_storage)": {
        "encoding": "mapping",
        "key": "t_address",
        "label": "mapping(address => struct Refund.Employee)",
        "numberOfBytes": "32",
        "value": "t_struct(Employee)18_storage"
      },
      "t_string_storage": {
        "encoding": "bytes",
        "label": "string",
        "numberOfBytes": "32"
      },
      "t_struct(Employee)18_storage": {
        "encoding": "inplace",
        "label": "struct Refund.Employee",
        "members": [
          {
            "astId": 9,
            "contract": "contracts/Refund.sol:Refund",
            "label": "fullName",
            "offset": 0,
            "slot": "0",
            "type": "t_string_storage"
          },
          {
            "astId": 11,
            "contract": "contracts/Refund.sol:Refund",
            "label": "email",
            "offset": 0,
            "slot": "1",
            "type": "t_string_storage"
          },
          {
            "astId": 13,
            "contract": "contracts/Refund.sol:Refund",
            "label": "longtuide",
            "offset": 0,
            "slot": "2",
            "type": "t_uint256"
          },
          {
            "astId": 15,
            "contract": "contracts/Refund.sol:Refund",
            "label": "latitude",
            "offset": 0,
            "slot": "3",
            "type": "t_uint256"
          },
          {
            "astId": 17,
            "contract": "contracts/Refund.sol:Refund",
            "label": "permittedRange",
            "offset": 0,
            "slot": "4",
            "type": "t_uint256"
          }
        ],
        "numberOfBytes": "160"
      },
      "t_uint256": {
        "encoding": "inplace",
        "label": "uint256",
        "numberOfBytes": "32"
      }
    }
  }
}