{
  "address": "0xEd8aBA1335f31a3A552783356C27fbcF2682673E",
  "abi": [
    {
      "inputs": [],
      "stateMutability": "nonpayable",
      "type": "constructor"
    },
    {
      "anonymous": false,
      "inputs": [
        {
          "indexed": false,
          "internalType": "string",
          "name": "user",
          "type": "string"
        },
        {
          "indexed": false,
          "internalType": "uint256",
          "name": "id",
          "type": "uint256"
        }
      ],
      "name": "UserCreated",
      "type": "event"
    },
    {
      "inputs": [
        {
          "internalType": "uint256",
          "name": "lat2",
          "type": "uint256"
        },
        {
          "internalType": "uint256",
          "name": "lon2",
          "type": "uint256"
        }
      ],
      "name": "calculateDistance",
      "outputs": [
        {
          "internalType": "uint256",
          "name": "dist",
          "type": "uint256"
        }
      ],
      "stateMutability": "view",
      "type": "function"
    },
    {
      "inputs": [
        {
          "internalType": "address",
          "name": "empAddress",
          "type": "address"
        },
        {
          "internalType": "string",
          "name": "name",
          "type": "string"
        },
        {
          "internalType": "uint256",
          "name": "lat",
          "type": "uint256"
        },
        {
          "internalType": "uint256",
          "name": "lon",
          "type": "uint256"
        },
        {
          "internalType": "uint256",
          "name": "range",
          "type": "uint256"
        }
      ],
      "name": "createEmployee",
      "outputs": [],
      "stateMutability": "nonpayable",
      "type": "function"
    },
    {
      "inputs": [
        {
          "internalType": "address",
          "name": "",
          "type": "address"
        }
      ],
      "name": "employeeCondition",
      "outputs": [
        {
          "internalType": "bool",
          "name": "",
          "type": "bool"
        }
      ],
      "stateMutability": "view",
      "type": "function"
    },
    {
      "inputs": [
        {
          "internalType": "uint256",
          "name": "",
          "type": "uint256"
        }
      ],
      "name": "employees",
      "outputs": [
        {
          "internalType": "address",
          "name": "",
          "type": "address"
        }
      ],
      "stateMutability": "view",
      "type": "function"
    },
    {
      "inputs": [
        {
          "internalType": "uint256",
          "name": "lat",
          "type": "uint256"
        },
        {
          "internalType": "uint256",
          "name": "lon",
          "type": "uint256"
        },
        {
          "internalType": "uint256",
          "name": "time",
          "type": "uint256"
        }
      ],
      "name": "getCoordinate",
      "outputs": [],
      "stateMutability": "nonpayable",
      "type": "function"
    },
    {
      "inputs": [
        {
          "internalType": "address",
          "name": "empAddress",
          "type": "address"
        }
      ],
      "name": "getEmployeeDetail",
      "outputs": [
        {
          "internalType": "string",
          "name": "",
          "type": "string"
        },
        {
          "internalType": "uint256",
          "name": "",
          "type": "uint256"
        },
        {
          "internalType": "uint256",
          "name": "",
          "type": "uint256"
        },
        {
          "internalType": "uint256",
          "name": "",
          "type": "uint256"
        }
      ],
      "stateMutability": "view",
      "type": "function"
    },
    {
      "inputs": [],
      "name": "getEmployees",
      "outputs": [
        {
          "internalType": "address[]",
          "name": "",
          "type": "address[]"
        }
      ],
      "stateMutability": "view",
      "type": "function"
    },
    {
      "inputs": [],
      "name": "getOwner",
      "outputs": [
        {
          "internalType": "address",
          "name": "",
          "type": "address"
        }
      ],
      "stateMutability": "view",
      "type": "function"
    },
    {
      "inputs": [],
      "name": "say",
      "outputs": [
        {
          "internalType": "string",
          "name": "result",
          "type": "string"
        }
      ],
      "stateMutability": "pure",
      "type": "function"
    },
    {
      "inputs": [
        {
          "internalType": "uint256",
          "name": "x",
          "type": "uint256"
        }
      ],
      "name": "sqrt",
      "outputs": [
        {
          "internalType": "uint256",
          "name": "y",
          "type": "uint256"
        }
      ],
      "stateMutability": "pure",
      "type": "function"
    },
    {
      "inputs": [
        {
          "internalType": "address",
          "name": "",
          "type": "address"
        }
      ],
      "name": "user",
      "outputs": [
        {
          "internalType": "string",
          "name": "fullName",
          "type": "string"
        },
        {
          "internalType": "string",
          "name": "email",
          "type": "string"
        },
        {
          "internalType": "uint256",
          "name": "longtuide",
          "type": "uint256"
        },
        {
          "internalType": "uint256",
          "name": "latitude",
          "type": "uint256"
        },
        {
          "internalType": "uint256",
          "name": "permittedRange",
          "type": "uint256"
        }
      ],
      "stateMutability": "view",
      "type": "function"
    },
    {
      "inputs": [],
      "name": "userCount",
      "outputs": [
        {
          "internalType": "uint256",
          "name": "",
          "type": "uint256"
        }
      ],
      "stateMutability": "view",
      "type": "function"
    }
  ],
  "transactionHash": "0x6eef75f2e6799dc5237666347255c036146e30de48723c8067ab43edc6274ac1",
  "args": [],
  "numDeployments": 3,
  "solcInputHash": "e6415875e3e229632578679afb6edb9b",
  "bytecode": "0x608060405234801561001057600080fd5b5033600160006101000a81548173ffffffffffffffffffffffffffffffffffffffff021916908373ffffffffffffffffffffffffffffffffffffffff160217905550611478806100616000396000f3fe608060405234801561001057600080fd5b50600436106100b45760003560e01c8063677342ce11610071578063677342ce146101a45780636b37bbde146101d457806381e7e20e146101f0578063893d20e814610224578063954ab4b214610242578063b8aa839a14610260576100b4565b806307973ccf146100b957806325ce5e13146100d7578063282a0fa7146101075780634739326b146101235780634abefa36146101535780635a328d8b14610171575b600080fd5b6100c1610290565b6040516100ce9190610b23565b60405180910390f35b6100f160048036038101906100ec9190610b7e565b610296565b6040516100fe9190610b23565b60405180910390f35b610121600480360381019061011c9190610d62565b6102fc565b005b61013d60048036038101906101389190610df9565b610492565b60405161014a9190610e35565b60405180910390f35b61015b6104d1565b6040516101689190610f0e565b60405180910390f35b61018b60048036038101906101869190610f30565b61055f565b60405161019b9493929190610fe5565b60405180910390f35b6101be60048036038101906101b99190610df9565b61070c565b6040516101cb9190610b23565b60405180910390f35b6101ee60048036038101906101e99190611031565b610769565b005b61020a60048036038101906102059190610f30565b61089a565b60405161021b959493929190611084565b60405180910390f35b61022c6109e0565b6040516102399190610e35565b60405180910390f35b61024a610a0a565b60405161025791906110e5565b60405180910390f35b61027a60048036038101906102759190610f30565b610a47565b6040516102879190611122565b60405180910390f35b60005481565b60008060006102a43361055f565b50925092505060006102ee600283876102bd919061116c565b6102c791906112e0565b600285896102d5919061116c565b6102df91906112e0565b6102e9919061132b565b61070c565b905080935050505092915050565b83600360008773ffffffffffffffffffffffffffffffffffffffff1673ffffffffffffffffffffffffffffffffffffffff1681526020019081526020016000206000019080519060200190610352929190610a67565b5082600360008773ffffffffffffffffffffffffffffffffffffffff1673ffffffffffffffffffffffffffffffffffffffff1681526020019081526020016000206003018190555081600360008773ffffffffffffffffffffffffffffffffffffffff1673ffffffffffffffffffffffffffffffffffffffff1681526020019081526020016000206002018190555080600360008773ffffffffffffffffffffffffffffffffffffffff1673ffffffffffffffffffffffffffffffffffffffff168152602001908152602001600020600401819055506005859080600181540180825580915050600190039060005260206000200160009091909190916101000a81548173ffffffffffffffffffffffffffffffffffffffff021916908373ffffffffffffffffffffffffffffffffffffffff1602179055505050505050565b600581815481106104a257600080fd5b906000526020600020016000915054906101000a900473ffffffffffffffffffffffffffffffffffffffff1681565b6060600580548060200260200160405190810160405280929190818152602001828054801561055557602002820191906000526020600020905b8160009054906101000a900473ffffffffffffffffffffffffffffffffffffffff1673ffffffffffffffffffffffffffffffffffffffff168152602001906001019080831161050b575b5050505050905090565b60606000806000600360008673ffffffffffffffffffffffffffffffffffffffff1673ffffffffffffffffffffffffffffffffffffffff168152602001908152602001600020600001600360008773ffffffffffffffffffffffffffffffffffffffff1673ffffffffffffffffffffffffffffffffffffffff16815260200190815260200160002060030154600360008873ffffffffffffffffffffffffffffffffffffffff1673ffffffffffffffffffffffffffffffffffffffff16815260200190815260200160002060020154600360008973ffffffffffffffffffffffffffffffffffffffff1673ffffffffffffffffffffffffffffffffffffffff1681526020019081526020016000206004015483805461067d906113b0565b80601f01602080910402602001604051908101604052809291908181526020018280546106a9906113b0565b80156106f65780601f106106cb576101008083540402835291602001916106f6565b820191906000526020600020905b8154815290600101906020018083116106d957829003601f168201915b5050505050935093509350935093509193509193565b600080600260018461071e919061132b565b6107289190611411565b90508291505b818110156107635780915060028182856107489190611411565b610752919061132b565b61075c9190611411565b905061072e565b50919050565b6000811015801561077d5750620151808111155b61078657600080fd5b60006107928484610296565b9050600360003373ffffffffffffffffffffffffffffffffffffffff1673ffffffffffffffffffffffffffffffffffffffff1681526020019081526020016000206004015481111561083b576000600460003373ffffffffffffffffffffffffffffffffffffffff1673ffffffffffffffffffffffffffffffffffffffff16815260200190815260200160002060006101000a81548160ff021916908315150217905550610894565b6001600460003373ffffffffffffffffffffffffffffffffffffffff1673ffffffffffffffffffffffffffffffffffffffff16815260200190815260200160002060006101000a81548160ff0219169083151502179055505b50505050565b60036020528060005260406000206000915090508060000180546108bd906113b0565b80601f01602080910402602001604051908101604052809291908181526020018280546108e9906113b0565b80156109365780601f1061090b57610100808354040283529160200191610936565b820191906000526020600020905b81548152906001019060200180831161091957829003601f168201915b50505050509080600101805461094b906113b0565b80601f0160208091040260200160405190810160405280929190818152602001828054610977906113b0565b80156109c45780601f10610999576101008083540402835291602001916109c4565b820191906000526020600020905b8154815290600101906020018083116109a757829003601f168201915b5050505050908060020154908060030154908060040154905085565b6000600160009054906101000a900473ffffffffffffffffffffffffffffffffffffffff16905090565b60606040518060400160405280600b81526020017f48656c6c6f20776f726c64000000000000000000000000000000000000000000815250905090565b60046020528060005260406000206000915054906101000a900460ff1681565b828054610a73906113b0565b90600052602060002090601f016020900481019282610a955760008555610adc565b82601f10610aae57805160ff1916838001178555610adc565b82800160010185558215610adc579182015b82811115610adb578251825591602001919060010190610ac0565b5b509050610ae99190610aed565b5090565b5b80821115610b06576000816000905550600101610aee565b5090565b6000819050919050565b610b1d81610b0a565b82525050565b6000602082019050610b386000830184610b14565b92915050565b6000604051905090565b600080fd5b600080fd5b610b5b81610b0a565b8114610b6657600080fd5b50565b600081359050610b7881610b52565b92915050565b60008060408385031215610b9557610b94610b48565b5b6000610ba385828601610b69565b9250506020610bb485828601610b69565b9150509250929050565b600073ffffffffffffffffffffffffffffffffffffffff82169050919050565b6000610be982610bbe565b9050919050565b610bf981610bde565b8114610c0457600080fd5b50565b600081359050610c1681610bf0565b92915050565b600080fd5b600080fd5b6000601f19601f8301169050919050565b7f4e487b7100000000000000000000000000000000000000000000000000000000600052604160045260246000fd5b610c6f82610c26565b810181811067ffffffffffffffff82111715610c8e57610c8d610c37565b5b80604052505050565b6000610ca1610b3e565b9050610cad8282610c66565b919050565b600067ffffffffffffffff821115610ccd57610ccc610c37565b5b610cd682610c26565b9050602081019050919050565b82818337600083830152505050565b6000610d05610d0084610cb2565b610c97565b905082815260208101848484011115610d2157610d20610c21565b5b610d2c848285610ce3565b509392505050565b600082601f830112610d4957610d48610c1c565b5b8135610d59848260208601610cf2565b91505092915050565b600080600080600060a08688031215610d7e57610d7d610b48565b5b6000610d8c88828901610c07565b955050602086013567ffffffffffffffff811115610dad57610dac610b4d565b5b610db988828901610d34565b9450506040610dca88828901610b69565b9350506060610ddb88828901610b69565b9250506080610dec88828901610b69565b9150509295509295909350565b600060208284031215610e0f57610e0e610b48565b5b6000610e1d84828501610b69565b91505092915050565b610e2f81610bde565b82525050565b6000602082019050610e4a6000830184610e26565b92915050565b600081519050919050565b600082825260208201905092915050565b6000819050602082019050919050565b610e8581610bde565b82525050565b6000610e978383610e7c565b60208301905092915050565b6000602082019050919050565b6000610ebb82610e50565b610ec58185610e5b565b9350610ed083610e6c565b8060005b83811015610f01578151610ee88882610e8b565b9750610ef383610ea3565b925050600181019050610ed4565b5085935050505092915050565b60006020820190508181036000830152610f288184610eb0565b905092915050565b600060208284031215610f4657610f45610b48565b5b6000610f5484828501610c07565b91505092915050565b600081519050919050565b600082825260208201905092915050565b60005b83811015610f97578082015181840152602081019050610f7c565b83811115610fa6576000848401525b50505050565b6000610fb782610f5d565b610fc18185610f68565b9350610fd1818560208601610f79565b610fda81610c26565b840191505092915050565b60006080820190508181036000830152610fff8187610fac565b905061100e6020830186610b14565b61101b6040830185610b14565b6110286060830184610b14565b95945050505050565b60008060006060848603121561104a57611049610b48565b5b600061105886828701610b69565b935050602061106986828701610b69565b925050604061107a86828701610b69565b9150509250925092565b600060a082019050818103600083015261109e8188610fac565b905081810360208301526110b28187610fac565b90506110c16040830186610b14565b6110ce6060830185610b14565b6110db6080830184610b14565b9695505050505050565b600060208201905081810360008301526110ff8184610fac565b905092915050565b60008115159050919050565b61111c81611107565b82525050565b60006020820190506111376000830184611113565b92915050565b7f4e487b7100000000000000000000000000000000000000000000000000000000600052601160045260246000fd5b600061117782610b0a565b915061118283610b0a565b9250828210156111955761119461113d565b5b828203905092915050565b60008160011c9050919050565b6000808291508390505b60018511156111f7578086048111156111d3576111d261113d565b5b60018516156111e25780820291505b80810290506111f0856111a0565b94506111b7565b94509492505050565b60008261121057600190506112cc565b8161121e57600090506112cc565b8160018114611234576002811461123e5761126d565b60019150506112cc565b60ff8411156112505761124f61113d565b5b8360020a9150848211156112675761126661113d565b5b506112cc565b5060208310610133831016604e8410600b84101617156112a25782820a90508381111561129d5761129c61113d565b5b6112cc565b6112af84848460016111ad565b925090508184048111156112c6576112c561113d565b5b81810290505b9392505050565b600060ff82169050919050565b60006112eb82610b0a565b91506112f6836112d3565b92506113237fffffffffffffffffffffffffffffffffffffffffffffffffffffffffffffffff8484611200565b905092915050565b600061133682610b0a565b915061134183610b0a565b9250827fffffffffffffffffffffffffffffffffffffffffffffffffffffffffffffffff038211156113765761137561113d565b5b828201905092915050565b7f4e487b7100000000000000000000000000000000000000000000000000000000600052602260045260246000fd5b600060028204905060018216806113c857607f821691505b602082108114156113dc576113db611381565b5b50919050565b7f4e487b7100000000000000000000000000000000000000000000000000000000600052601260045260246000fd5b600061141c82610b0a565b915061142783610b0a565b925082611437576114366113e2565b5b82820490509291505056fea2646970667358221220ee7bed818fe2b52703d17258254c09913c50ab256ecca28430049dbb8d6c7cd964736f6c63430008080033",
  "devdoc": {
    "kind": "dev",
    "methods": {},
    "version": 1
  },
  "userdoc": {
    "kind": "user",
    "methods": {},
    "version": 1
  },
  "storageLayout": {
    "storage": [
      {
        "astId": 3,
        "contract": "contracts/Refund.sol:Refund",
        "label": "userCount",
        "offset": 0,
        "slot": "0",
        "type": "t_uint256"
      },
      {
        "astId": 5,
        "contract": "contracts/Refund.sol:Refund",
        "label": "owner",
        "offset": 0,
        "slot": "1",
        "type": "t_address"
      },
      {
        "astId": 7,
        "contract": "contracts/Refund.sol:Refund",
        "label": "employer",
        "offset": 0,
        "slot": "2",
        "type": "t_uint256"
      },
      {
        "astId": 23,
        "contract": "contracts/Refund.sol:Refund",
        "label": "user",
        "offset": 0,
        "slot": "3",
        "type": "t_mapping(t_address,t_struct(Employee)18_storage)"
      },
      {
        "astId": 27,
        "contract": "contracts/Refund.sol:Refund",
        "label": "employeeCondition",
        "offset": 0,
        "slot": "4",
        "type": "t_mapping(t_address,t_bool)"
      },
      {
        "astId": 36,
        "contract": "contracts/Refund.sol:Refund",
        "label": "employees",
        "offset": 0,
        "slot": "5",
        "type": "t_array(t_address)dyn_storage"
      }
    ],
    "types": {
      "t_address": {
        "encoding": "inplace",
        "label": "address",
        "numberOfBytes": "20"
      },
      "t_array(t_address)dyn_storage": {
        "base": "t_address",
        "encoding": "dynamic_array",
        "label": "address[]",
        "numberOfBytes": "32"
      },
      "t_bool": {
        "encoding": "inplace",
        "label": "bool",
        "numberOfBytes": "1"
      },
      "t_mapping(t_address,t_bool)": {
        "encoding": "mapping",
        "key": "t_address",
        "label": "mapping(address => bool)",
        "numberOfBytes": "32",
        "value": "t_bool"
      },
      "t_mapping(t_address,t_struct(Employee)18_storage)": {
        "encoding": "mapping",
        "key": "t_address",
        "label": "mapping(address => struct Refund.Employee)",
        "numberOfBytes": "32",
        "value": "t_struct(Employee)18_storage"
      },
      "t_string_storage": {
        "encoding": "bytes",
        "label": "string",
        "numberOfBytes": "32"
      },
      "t_struct(Employee)18_storage": {
        "encoding": "inplace",
        "label": "struct Refund.Employee",
        "members": [
          {
            "astId": 9,
            "contract": "contracts/Refund.sol:Refund",
            "label": "fullName",
            "offset": 0,
            "slot": "0",
            "type": "t_string_storage"
          },
          {
            "astId": 11,
            "contract": "contracts/Refund.sol:Refund",
            "label": "email",
            "offset": 0,
            "slot": "1",
            "type": "t_string_storage"
          },
          {
            "astId": 13,
            "contract": "contracts/Refund.sol:Refund",
            "label": "longtuide",
            "offset": 0,
            "slot": "2",
            "type": "t_uint256"
          },
          {
            "astId": 15,
            "contract": "contracts/Refund.sol:Refund",
            "label": "latitude",
            "offset": 0,
            "slot": "3",
            "type": "t_uint256"
          },
          {
            "astId": 17,
            "contract": "contracts/Refund.sol:Refund",
            "label": "permittedRange",
            "offset": 0,
            "slot": "4",
            "type": "t_uint256"
          }
        ],
        "numberOfBytes": "160"
      },
      "t_uint256": {
        "encoding": "inplace",
        "label": "uint256",
        "numberOfBytes": "32"
      }
    }
  }
}